:020000023000CC
:10E000000D9472F00D949BF00D949BF00D949BF089
:10E010000D949BF00D949BF00D949BF00D949BF050
:10E020000D949BF00D949BF00D949BF00D949BF040
:10E030000D949BF00D949BF00D949BF00D949BF030
:10E040000D949BF00D949BF00D949BF00D949BF020
:10E050000D949BF00D949BF00D949BF00D949BF010
:10E060000D949BF00D949BF00D949BF00D949BF000
:10E070000D949BF00D949BF00D949BF00D949BF0F0
:10E080000D949BF00D949BF00D949BF00D949BF0E0
:10E090000D949BF00D949BF00D949BF00D949BF0D0
:10E0A0000D949BF00D949BF00D949BF00D949BF0C0
:10E0B0000D949BF00D949BF00D949BF00D949BF0B0
:10E0C0000D949BF00D949BF00D949BF00D949BF0A0
:10E0D0000D949BF00D949BF00D949BF00D949BF090
:10E0E0000D949BF011241FBECFEFD1E2DEBFCDBF58
:10E0F00001E00CBF12E0A0E0B2E0E8E3F0EF03E0E3
:10E100000BBF02C007900D92A035B107D9F722E0EE
:10E11000A0E5B2E001C01D92A036B207E1F70F946E
:10E120000EF20D941AF801E20EBF0FEE0DBF11248E
:10E130001FBE0D940EF20D9400F020915E023091FE
:10E140005F022115310561F48093C6008091C00003
:10E1500086FFFCCF8091C00080648093C00008954A
:10E160002230310559F48093D6008091D00086FF8B
:10E17000FCCF8091D00080648093D000089530E07F
:10E1800020E02817390709F40895EFECF7E03197FC
:10E19000F1F700C000002F5F3F4FF3CFE0ECF0E05D
:10E1A00080818260808320E12093C40098E1909375
:10E1B000C100E0EDF0E08081826080832093D40094
:10E1C0009093D1000895019719F480E885B90895D6
:10E1D00015B8089581B1806F81B982B1806F82B91D
:10E1E0006D9A75989D9AA598E1E0F1E0808188622A
:10E1F0008083E2E0F1E080818862808308958F98D7
:10E2000008958F9A0895CF93DF93C82FD62F662352
:10E2100009F448C05D9AC7FF47C0A39A80910201E4
:10E22000C6FF44C0806880930201C5FF41C0A49A24
:10E23000C4FF40C08D9A00C00F9401F182E08A951E
:10E24000F1F700C00F94FFF0C3FF36C0A39A80918E
:10E250000201C2FF33C0806880930201C1FF30C059
:10E26000A49AC0FF2FC08D9A00C00F9401F192E0D4
:10E270009A95F1F700C00F94FFF0A39A80910201E4
:10E28000806880930201A49A8D9AD1111DC0C43078
:10E29000D8F48FE999E10197F1F700C00000DF9110
:10E2A000CF9108955D98B7CFA398B8CF8F77BBCFA4
:10E2B000A498BECF8D98BFCFA398C9CF8F77CCCF6E
:10E2C000A498CFCF8D98D0CF95ED9A95F1F7E6CF62
:10E2D00060E00D9403F180580D9468F181E00D9495
:10E2E00068F182E00D9468F161E00D9403F1CF9341
:10E2F000DF93EC018991811103C0DF91CF910895E3
:10E300000F9474F1F7CFCF93DF93EC01FE0184916A
:10E310002196811103C0DF91CF9108950F9474F17C
:10E32000F5CF879A559A9B9AE1E0F1E08081806869
:10E3300080839C9A859A0F94FFF05D98A39AE2E0FF
:10E34000F1E0808180688083A49A8D9A8FE59AEEAF
:10E350000197F1F700C00000A39880818F77808338
:10E3600000C00F9401F192E09A95F1F700C00F946C
:10E37000FFF08FE090E40197F1F700C000000F94E8
:10E3800001F192E09A95F1F700C00F94FFF08FE849
:10E3900091E00197F1F700C000000F9401F192E0C5
:10E3A0009A95F1F700C00F94FFF085ED8A95F1F78B
:10E3B00000008D9800C00F9401F192E09A95F1F75A
:10E3C00000C00F94FFF085ED8A95F1F700008D985D
:10E3D00000C00F9401F192E09A95F1F700C00F94FC
:10E3E000FFF082E08A95F1F700C0A39A00C00F9475
:10E3F00001F192E09A95F1F700C00F94FFF085EDDE
:10E400008A95F1F7000088E00F9468F10F946EF19F
:10E4100086E00F9468F18CE00D9468F1CF93DF9360
:10E42000CDB7DEB7CE52D1400FB6F894DEBF0FBEE7
:10E43000CDBF94B7F894A89514BE80916000886110
:10E440008093600010926000789493FFADC080913B
:10E45000FC1F9091FD1FA091FE1FB091FF1F8A3AF3
:10E460009545AA4AB545B1F48091F41F9091F51FE6
:10E47000A091F61FB091F71F6C017D0173E0372E5C
:10E4800051E015E001E12091F81F3091F91F2115AD
:10E49000310571F400008091C0008D7F8093C00031
:10E4A00081E180935700E895EE27FF270994FFCF7D
:10E4B0004091FB1F40FF09C0F601E0925B003092E3
:10E4C0005700E89507B600FCFDCF460157016FEFF6
:10E4D000961AA60AB60A41FF55C044702091F81F4B
:10E4E0003091F91F2115310529F088159905AA05E4
:10E4F000BB0578F0F601E0925B0010935700E895B9
:10E5000007B600FCFDCF00935700E8957501640144
:10E51000BACF4090F01F5090F11F6090F21F7090A2
:10E52000F31F442331F16BBEF201679176910B0129
:10E53000FC01A0935B0050935700E895112472E012
:10E54000470E511C611C711C4092F01F5092F11F2C
:10E550006092F21F7092F31F2330310570F0225049
:10E5600031093093F91F2093F81F0296A11DB11DA8
:10E57000B5CFF20160817181DACF1092F91F10924C
:10E58000F81FF3CF9F5FAF4FBF4F2130E1E03E0751
:10E5900030F03A953093F91F2093F81FB7CF1092BF
:10E5A000F91F1092F81FB2CF10925F0210925E0214
:10E5B000279A2F9A8091C00082608093C00080E1EA
:10E5C0008093C40088E18093C10000000F94EAF0BA
:10E5D00080E885B90F94CEF00F9491F10F946EF10D
:10E5E00080E00F946BF185E40F946BF183E092E08F
:10E5F0000F9477F115B810E000E0C12CD12C760112
:10E6000067EC862E6BE1962EA12CB12C8091C00078
:10E6100087FD08C08091D00087FD04C00115110559
:10E6200009F447C08091D00087FF06C082E090E0E7
:10E6300090935F0280935E02012B09F0F6C2CA5DDF
:10E64000DE4F1882C652D140D12CCC5DDE4F1982EC
:10E650001882C452D140B0E0A0E0CE5DDE4F1982F6
:10E660001882C252D140C95DDE4F19821882C7524A
:10E67000D140812C912C5401412C512C320141E08C
:10E6800050E0BE016F5F7F4F1B0160914C027091A3
:10E690004D0280914E0290914F02C55DDE4F68831E
:10E6A00079838A839B83CB52D14030E020E080E0A5
:10E6B0007BC1F5E0FA95F1F700002FEFC21AD20AFC
:10E6C000E20AF20A91E080E031E2C3163EE4D306AA
:10E6D000E104F10408F490E0092F182FC701B601F6
:10E6E000A50194010F94B5F7672B682B692B09F0EE
:10E6F0008DCF85B1805885B989CF60915E027091C8
:10E700005F02EE24E39412E1F12E0AE710E06115B6
:10E710007105A9F49091C00097FD4AC141E0E41A47
:10E72000F1080109110999F70BBFF701E790F6907D
:10E73000EF20E09431F3EE27FF270994DECF62301B
:10E74000710561F79091D00097FFE8CF9091D600C6
:10E75000833009F430C160F4813009F41CC108F43D
:10E7600014C1292F30E0322F2227D92683E01AC185
:10E77000853009F42FC108F422C1863009F447C15D
:10E78000873009F00FC1AB2B81F40F946EF184E157
:10E790000F946BF18EE092E00F9477F18DE20F947D
:10E7A0006BF182E292E00F9477F180915A0290919E
:10E7B0005B02A0915C02B0915D02892B8A2B8B2BAE
:10E7C00009F049C0C95DDE4F68817981C752D140E7
:10E7D0006F5F7F4FC95DDE4F79836883C752D14039
:10E7E0006B307105C0F1CE5DDE4F88819981C252D8
:10E7F000D1400196CE5DDE4F99838883C252D140CD
:10E80000069730F0CE5DDE4F19821882C252D14099
:10E810008BE50F946BF186E392E00F9477F1CE5D78
:10E82000DE4FE881F981C252D1408E2F845A34974D
:10E8300038F082E6CE5DDE4FF881C252D1408F1BA8
:10E840000F946BF18AE20F9474F1C95DDE4F198267
:10E850001882C752D14080915A0290915B02A091D8
:10E860005C02B0915D02892B8A2B8B2B09F462C06C
:10E870008091500290915102009709F45BC001977A
:10E8800039F488E50F946BF18DE392E00F9477F102
:10E890008091500290915102029739F487E50F94CC
:10E8A0006BF184E492E00F9477F12091560230915D
:10E8B00057024091580250915902A4E6B0E00F94DB
:10E8C000DEF720915A0230915B0240915C02509138
:10E8D0005D020F94B5F7C901C55DDE4F288139810E
:10E8E0004A815B81CB52D140C25EDE4F288339839F
:10E8F0004A835B83CE51D140FE01E25EFE4F8F0121
:10E900000350110930E2181619060CF085C06AE0B0
:10E9100070E00F94A1F7805D8283CB0131970E17D1
:10E920001F0789F7CE01825E9E4F0F9477F185E233
:10E930000F9474F12981243109F458C208F0EDC014
:10E94000263009F4DFC108F069C0223009F416C18D
:10E95000233009F489C1213009F067C01A8288E0A8
:10E960008B8381E48C8386E58D8382E58E8389E4C5
:10E970008F8383E5888780E589878FE58A8782E3AF
:10E980008B87C12C0BE010E013C19B3159F48BE154
:10E99000D82E81E007C0D926CA5DDE4F9883C652C3
:10E9A000D14082E050E040E04130510509F0A5CE71
:10E9B0009091C600CDCE292BD92684E0F3CF9E308E
:10E9C00049F5D926CC5DDE4F19821882C452D14058
:10E9D00085E0E8CFCC5DDE4F48815981C452D140FB
:10E9E0004F5F5F4FCC5DDE4FE881F981C452D1406B
:10E9F000E20DF31D9083D9264217530709F499C2FB
:10EA0000CC5DDE4F59834883C452D140CBCF9D1596
:10EA100009F4B9CE80E0C6CF328380CF213109F42A
:10EA200032C130F4203109F4A9C080EC8A8377C167
:10EA3000223109F45EC12331C1F70A811B811027FD
:10EA400001271027233109F0A0C180915A0290912B
:10EA50005B02A0915C02B0915D02892B8A2B8B2B0B
:10EA6000F9F0411451046104710409F05AC1C8015C
:10EA7000B0E0A0E08093560290935702A093580212
:10EA8000B093590281E090E090935102809350023C
:10EA90004092520250925302609254027092550278
:10EAA000811420EE920623E0A206B10470F483E004
:10EAB000F401A0925B0080935700E89507B600FC34
:10EAC000FDCF3FEF931AA30AB30A411440EE540658
:10EAD00043E06406710408F021C18B85DE011196C4
:10EAE000B301A20121E01B969C911B970C01FA0136
:10EAF00060935B0020935700E89511244E5F5F4FB1
:10EB00006F4F7F4F0250110912960115110509F43C
:10EB10002BC11A968C911A97E6CF293109F4D7C0E8
:10EB2000B8F4263109F462C108F487CF283109F01E
:10EB30007CCF8B81803509F0C6C08C81883009F08C
:10EB4000BEC089E0E2E0F0E0809357008491A4C069
:10EB50002B3109F49BC008F4A5C02D31A1F0213759
:10EB600009F063CF8A8180935A028B8180935B0284
:10EB70008C8180935C0210925D02D0C0C12C1A82FD
:10EB800002E010E015C09D81903309F055C08F81DF
:10EB9000882309F465C0813009F064C088E91A82CD
:10EBA0001B829C831D828E831F82C12C07E010E094
:10EBB0008BE10F949DF0CA5DDE4F8881C652D14033
:10EBC0000F949DF0812F0F949DF0802F0F949DF056
:10EBD00095E1D92ECA5DDE4F4881C652D140D42678
:10EBE000D0268EE00F949DF0D126BE016F5F7F4F3F
:10EBF0007B01060F171F0E151F0509F085C18D2D0E
:10EC00000F949DF0CA5DDE4F4881C652D1404F5FE0
:10EC1000CA5DDE4F4883C652D14085B1805885B960
:10EC2000A1E0B0E0CC2009F481C127982F9884E6B8
:10EC300090E00F94BFF02ECC892F807509F4AFCFF0
:10EC400089E0F0E0E0E0903539F080E0983509F0B7
:10EC5000A6CF89E0E3E0F0E08093570084919FCF56
:10EC60008EE19DCF81E09BCFEA81E05980E0E330E7
:10EC700020F4F0E0E050FE4F80811A828B83C12C9B
:10EC800003E010E095CFCC24C39479CF8D81882305
:10EC900029F0813029F488E91A820BC08EE1FCCF7B
:10ECA00081E0FACF1A8289E0E1E0F0E0809357003A
:10ECB00084918B831C82C12C04E010E079CF89E021
:10ECC000F0E0E0E041CF89E0E3E0F0E03DCF8D818E
:10ECD000836C99E0E1E0F0E0082E90935700E8950E
:10ECE00087B7F82FF170CF2E80FDFACF1A821B82E2
:10ECF000C7CF80EC8A83C12C02E010E0812C912CDC
:10ED0000540156CF6A817B818C819D810F94D7F706
:10ED10002B013C01440C551C661C771C1A82C12C2B
:10ED20002FCF8091520290915302A0915402B09142
:10ED3000550284159505A605B70509F4A9CE80915D
:10ED4000560290915702A0915802B0915902800F3B
:10ED5000911FA11DB11D8093560290935702A0935D
:10ED60005802B093590294CE85E0F20160925B00A4
:10ED700080935700E89507B600FCFDCF81E18093B2
:10ED80005700E8952A013B01C9CF73016201F6944F
:10ED9000E794D794C794B101600F711FC75DDE4F30
:10EDA00079836883C952D1407101C218D308C75D05
:10EDB000DE4F28813981C952D140E216F30659F459
:10EDC00030E020E0000F111F221F331F400E511EA4
:10EDD000621E731EA3CFF7016285C6018E0D9F1DB3
:10EDE0000F940CF8FFEFEF1AFF0AE1CF8A819B81A5
:10EDF0009827892798278C010D5F1F4F1A8224318D
:10EE000009F057C040915A0250915B0260915C0238
:10EE100070915D02452B462B472BE9F06C01F12CDC
:10EE2000E12C411451046104710471F520915002E8
:10EE3000309151022130310539F522E030E0309334
:10EE4000510220935002C0925602D0925702E09293
:10EE50005802F0925902D1016BBEF201279136910E
:10EE600012962C931297FD01349613963C931397A8
:10EE700032E0430E511C611C711C029712960097E0
:10EE800059F71082C12C94CE4091560250915702EE
:10EE900060915802709159024C0D5D1D6E1D7F1DD1
:10EEA0004093560250935702609358027093590250
:10EEB000D2CFF1019101280F391FB301A20141BD49
:10EEC000C52ED62EE72EFF24C2BC4F5F5F4F6F4F7B
:10EED0007F4FF89AA0B5A28331962E173F0779F796
:10EEE000AC014150510970E060E04F5F5F4F6F4FE0
:10EEF0007F4F440E551E661E771EE3E0F0E0EC0FD8
:10EF0000FD1FE80FF91FBDCFF70121917F01C75DFC
:10EF1000DE4F2883C952D140822F0F949DF0C75DE8
:10EF2000DE4F3881C952D140D32665CE50E040E053
:10EF3000BCCBCC5DDE4F39832883C452D14086E000
:10EF400031CD97FB072E16F4009407D077FD09D03A
:10EF50000F94E9F707FC05D03EF4909581959F4FFB
:10EF60000895709561957F4F0895A1E21A2EAA1B0E
:10EF7000BB1BFD010DC0AA1FBB1FEE1FFF1FA21769
:10EF8000B307E407F50720F0A21BB30BE40BF50B66
:10EF9000661F771F881F991F1A9469F760957095EF
:10EFA000809590959B01AC01BD01CF010895692723
:10EFB0009627692778278727782708950F94FDF7E4
:10EFC000A59F900DB49F900DA49F800D911D1124BD
:10EFD0000895AA1BBB1B51E107C0AA1FBB1FA617A0
:10EFE000B70710F0A61BB70B881F991F5A95A9F7F2
:10EFF00080959095BC01CD010895A29FB001B39F6B
:10F00000C001A39F700D811D1124911DB29F700D31
:10F01000811D1124911D0895262FF999FECF1FBA45
:10F0200092BD81BD20BD0FB6F894FA9AF99A0FBE31
:08F0300001960895F894FFCF4A
:10F038000F020A5665676574726F6E69780020441E
:10F048006F206E6F7420646973636F6E6E6563748E
:10F05800210020557067726164696E672066697265
:10F068006D77617265007C202020207C00777269B2
:10F07800746520007665726966792000202020007A
:040000033000E000E9
:00000001FF
